:020000040800F2
:10000000200600209D220008D5310008D7310008C5
:10001000DB310008DF310008E33100080000000098
:10002000000000000000000000000000E7310008B0
:10003000E931000800000000EB310008EF31000852
:10004000B7220008B7220008B7220008B72200082C
:10005000B7220008B7220008B7220008B72200081C
:10006000B7220008B7220008B7220008B72200080C
:10007000B7220008B7220008B7220008B7220008FC
:10008000B7220008B7220008B7220008B7220008EC
:10009000B7220008B7220008B7220008B7220008DC
:1000A000B7220008ED310008B7220008BD2B000878
:1000B0007D2F0008B7220008892F0008B72200080A
:1000C000B7220008B7220008B7220008B7220008AC
:1000D000B72200087D320008B7220008B7220008C6
:1000E000B7220008B7220008B7220008DFF80CD0BA
:1000F00004F0FAFF004800477F3100082006002086
:1001000031490143314A1160704770B50021002325
:100110000F22C47804B32D4C246804F4E064C4F5C1
:10012000E064210AC1F10403CA40447804FA03F1EF
:100130008478144021430901254C0678A1550478A0
:1001400004F01F050124AC4005786D11AD0005F1E8
:10015000E025C5F8004109E0047804F01F050124FA
:10016000AC401C4D0678761145F8264070BD1A4A01
:100170000A400243154B1B1F1A60704739B1134ADE
:10018000121D12680243114B1B1D1A6006E00F4A34
:10019000121D126882430D4B1B1D1A607047042804
:1001A00008D14FF0E021096941F004014FF0E0224D
:1001B000116107E04FF0E021096921F004014FF0DF
:1001C000E0221161704700000000FA050CED00E02C
:1001D00000E400E080E100E080FFFF1F10B504466E
:1001E000CC48844208D10121042000F02DFB0021DD
:1001F000042000F029FB46E0C748844208D10121D1
:10020000082000F021FB0021082000F01DFB3AE04F
:10021000C248844208D10121102000F015FB0021C2
:10022000102000F011FB2EE0BD48844208D10121CE
:10023000202000F009FB0021202000F005FB22E037
:10024000B848844208D10121402000F0FDFA002185
:10025000402000F0F9FA16E0B348844208D10121A9
:10026000802000F0F1FA0021802000F0EDFA0AE091
:10027000AE48844207D10121801500F0E5FA002143
:10028000A01500F0E1FA10BD10B50121084600F0FC
:10029000DBFA0021012000F0D7FA10BD2DE9F04172
:1002A000024600250026002000230024002791F8A4
:1002B00003C00CF00F0591F803C00CF0100CBCF15A
:1002C000000F03D091F802C04CEA050591F800C078
:1002D000BCF1000F31D0146800202BE04FF0010C6E
:1002E0000CFA00F3B1F800C00CEA03069E4220D1DC
:1002F00083004FF00F0C0CFA03F7BC4305FA03FC24
:100300004CEA040491F803C0BCF1280F06D14FF069
:10031000010C0CFA00FCC2F814C00AE091F803C00A
:10032000BCF1480F05D14FF0010C0CFA00FCC2F8EB
:1003300010C0401C0828D1D31460B1F800C0BCF133
:10034000FF0F34DD546800202EE000F1080C4FF060
:10035000010808FA0CF3B1F800C00CEA03069E424B
:1003600021D183004FF00F0C0CFA03F7BC4305FAC0
:1003700003FC4CEA040491F803C0BCF1280F05D13A
:1003800000F1080C08FA0CF8C2F8148091F803C0C8
:10039000BCF1480F07D100F1080C4FF0010808FA32
:1003A0000CF8C2F81080401C0828CED35460BDE879
:1003B000F0814FF6FF710180022181700421C1702C
:1003C00070470246002093680B400BB1012000E00B
:1003D000002070470146886880B2704702460020BE
:1003E000D3680B400BB1012000E0002070470146AC
:1003F000C86880B2704701617047416170470AB1B7
:10040000016100E041617047C16070474FF4803284
:100410000A43826181618261826982697047024612
:100420000020434B18684FF68073184040EA0210D2
:1004300008433F4B186070473E49C8617047F0B5AC
:100440000A46002300240021002500F00046B6F1F2
:10045000004F02D1364EF16901E0354E7168C0F3AC
:10046000034583B200F44016B6F5401F08D121F0D1
:1004700070612F4E766826F070662D4F7E6012E018
:1004800000F48016B6F5801F06D1032606FA05F49F
:10049000A14341F0706106E0460D360103FA06F60D
:1004A000B14341F0706122B1460D360103FA06F600
:1004B000314300F00046B6F1004F02D11C4EF1610D
:1004C00001E01B4E7160F0BD30B500228B071C0FA0
:1004D0000F2303FA04F2164B08338C1053F8243020
:1004E0009343134C08348D1044F8253023468C1068
:1004F00053F824308C07240F00FA04F423430C4CE7
:1005000008348D1044F8253030BD0A49DC310860CC
:100510007047000000080140000C0140001001403D
:100520000014014000180140001C0140002001405F
:100530000000014000002042DF48006840F0010058
:10054000DD49086008464068DC490840DA494860EF
:1005500008460068DA490840D7490860084600683C
:1005600020F4802008600846406820F4FE004860BF
:100570004FF41F0088607047CF49096821F480312B
:10058000CD4A11601146096821F480211160B0F54F
:10059000803F03D0B0F5802F0ED106E0C649096830
:1005A00041F48031C44A116007E0C349096841F44D
:1005B000A021C14A116000E000BF00BF704710B524
:1005C00001460022002300204A11012A02D1BA4C20
:1005D000236806E0022A02D1B74C236A01E0B64C38
:1005E000636A01F01F02012494401C400CB10120F9
:1005F00000E0002010BD38B5002000900024002548
:1006000000BF3120FFF7DBFF05460098401C00903B
:100610000098B0F5A06F01D0002DF2D03120FFF787
:10062000CEFF08B1012400E00024204638BD014679
:100630000020A14A106820F0F80040EAC1001060D4
:100640007047A04908607047024600209A4B5868DE
:1006500020F47C1042EA01031843974B586070471E
:1006600098490866704701460020934A506820F078
:1006700003000843506070478F48406800F00C004A
:100680007047014600208C4A506820F0F000084373
:100690005060704701460020874A506820F4E060AF
:1006A00008435060704701460020834A506820F498
:1006B000605040EAC1005060704729B17E4A527ACA
:1006C00002437D4B5A7204E07B4A527A82437A4B52
:1006D0005A7270477B49D831086070470146002044
:1006E000754A506820F4404008435060704700212C
:1006F000714A20321170704A82F82010012802D00D
:1007000004280AD104E001216B4A2032117005E06F
:100710000521694A2032117000E000BF00BF704718
:100720006949086070476449096A0143624A116275
:100730007047654944390860704730B50021002290
:10074000002400235C4D6D6805F00C0121B10429E3
:1007500005D0082923D105E05C4D056022E05B4D02
:1007600005601FE0544D6D6805F47012524D6D68C0
:1007700005F48034022505EB92421CB9544D5543D3
:1007800005600BE04C4D6D6805F400351DB1504D12
:100790005543056002E04D4D5543056002E04B4D69
:1007A000056000BF00BF444D6D6805F0F001090908
:1007B000484D6B5C0568DD4045603F4D6D6805F454
:1007C000E061090A434D6B5C4568DD4085603A4D48
:1007D0006D6805F46051C90A3E4D6B5C4568DD40AB
:1007E000C560354D6D6805F44041890B3A4D6B5C31
:1007F000C568B5FBF3F5056130BD29B12E4A5269D4
:1008000002432D4B5A6104E02B4A526982432A4B22
:100810005A61704729B1284A92690243264B9A616E
:1008200004E0254A92698243234B9A61704729B1BB
:10083000214AD2690243204BDA6104E01E4AD269A0
:1008400082431D4BDA61704729B11B4AD2680243CB
:10085000194BDA6004E0184AD2688243164BDA601A
:10086000704729B1144A12690243134B1A6104E01C
:10087000114A12698243104B1A617047124940397C
:10088000086070470F49C86470470B49C8717047CA
:100890000948406A40F08070074948627047014645
:1008A0000020054A92680A400AB1012000E00020B9
:1008B0007047014988727047001002400000FFF83D
:1008C000FFFFF6FE000042428004424200127A001E
:1008D00000093D00000000201000002010B5044673
:1008E000FE48844208D10121C014FFF7ADFF00216A
:1008F000E014FFF7A9FFC4E0B4F1804F08D1012153
:100900000846FFF7AEFF00210120FFF7AAFFB8E07D
:10091000F348844208D101210220FFF7A2FF002101
:100920000220FFF79EFFACE0EE48844208D101218F
:100930000420FFF796FF00210420FFF792FFA0E0BC
:10094000E948844208D101210820FFF78AFF0021ED
:100950000820FFF786FF94E0E448844208D1012193
:100960001020FFF77EFF00211020FFF77AFF88E0BC
:10097000DF48844208D101212020FFF772FF0021C7
:100980002020FFF76EFF7CE0DA48844208D1012185
:100990004014FFF759FF00216014FFF755FF70E086
:1009A000D548844209D10121C804FFF74DFF002139
:1009B0004FF40020FFF748FF63E0D048844209D19C
:1009C00001210805FFF740FF00214FF48010FFF7D9
:1009D0003BFF56E0CA48844209D101214805FFF790
:1009E00033FF00214FF40010FFF72EFF49E0C54808
:1009F000844208D101214020FFF733FF002140202D
:100A0000FFF72FFF3DE0C048844208D1012180203C
:100A1000FFF727FF00218020FFF723FF31E0BB48CD
:100A2000844208D101218015FFF71BFF0021A0158A
:100A3000FFF717FF25E0B648844209D101210804D9
:100A4000FFF702FF00214FF48030FFF7FDFE18E0B2
:100A5000B048844209D101214804FFF7F5FE002186
:100A60004FF40030FFF7F0FE0BE0AB48844208D1B2
:100A700001218804FFF7E8FE00214FF48020FFF7F2
:100A8000E3FE10BD00220288944B98420ED0994B91
:100A900098420BD0B0F1804F08D0914B984205D0CE
:100AA000904B984202D0904B984204D14FF68F73EE
:100AB0001A404B881A438D4B984207D08C4B984272
:100AC00004D04FF6FF431A40CB881A4302808B882C
:100AD00083850B880385814B98420BD0854B9842C8
:100AE00008D08B4B984205D08A4B984202D08A4B53
:100AF000984201D10B7A038601238382704770B537
:100B0000002400220023058C4FF6FE763540058434
:100B1000028C8388048B4FF68F752C40B51E2C40B9
:100B20000D882C43751E2A400D892A434D882A437F
:100B30006A4DA8420BD06F4DA84208D0744DA84210
:100B400005D0744DA84202D0734DA84213D14FF680
:100B5000F7752A404D892A434FF6FB752A408D8848
:100B60002A434FF6FF652B404FF6FF552B408D89EA
:100B70002B43CD892B4383800483CD8885860284D3
:100B800070BD70B5002400220023058C4FF6EF766F
:100B900035400584028C8388048B48F6FF752C4011
:100BA0004FF6FF452C400D884FF6FF7606EA0525E7
:100BB0002C434FF6DF752A400D8906EA05152A43B6
:100BC0004D8806EA05152A43444DA84202D0494DF6
:100BD000A8421DD14FF67F752A404D894FF6FF760A
:100BE00006EA05152A434FF6BF752A408D8806EAA6
:100BF00005152A434FF6FF352B404FF2FF752B406A
:100C00008D8906EA85052B43CD8906EA85052B43A8
:100C100083800483CD880587028470BD70B500246D
:100C200000220023058C4FF6FF6635400584028CB8
:100C30008388848B4FF68F752C404FF6FC752C40C3
:100C40000D882C434FF6FF552A400D894FF6FF764D
:100C500006EA05252A434D8806EA05252A431F4D45
:100C6000A84202D0234DA8421DD14FF2FF752A4061
:100C70004D894FF6FF7606EA05252A434FF6FF35E4
:100C80002A408D8806EA05252A434EF6FF752B403B
:100C90004DF6FF752B408D8906EA05152B43CD894E
:100CA00006EA05152B4383808483CD8885870284DB
:100CB00070BD70B5002200230024058C4EF6FF762F
:100CC00035400584038C8488828B48F6FF752A4062
:100CD0004FF6FF452A400D8820E00000002C01401F
:100CE0000004004000080040000C004000100040DC
:100CF0000014004000340140004C0140005001400D
:100D00000054014000180040001C0040002000403A
:100D10000040014000440140004801404FF6FF768A
:100D200006EA05252A434DF6FF752B400D8906EA94
:100D300005352B434D8806EA05352B43FA4DA8426D
:100D400002D0FA4DA84208D14BF6FF752C408D8990
:100D50004FF6FF7606EA85152C4384808283CD8882
:100D6000A0F84050038470BD828B4FF2FF331A40CD
:100D70008283828B4FF6FF7303EA01231A43828337
:100D80007047F0B50C461546002200210026078C5E
:100D90004EF6FF7C07EA0C070784828B018C4FF626
:100DA000FF7707EA043640F6FF473A404FF6FF77F1
:100DB00007EA05273A434FF6FF7707EA03373A4336
:100DC000D94FB8420ED0D94FB8420BD0B0F1804FB6
:100DD00008D0D74FB84205D0D64FB84202D0D64F30
:100DE000B84206D14DF6FF77394046F48057394373
:100DF00005E047F6FF57394044F480573943828372
:100E00000184F0BD828B4FF6F3731A408283828B8C
:100E10000A4382837047F0B50C4615460022002134
:100E20000026078C4FF6FF6C07EA0C070784828BBD
:100E3000018C4FF6FF7707EA04264FF60C773A400D
:100E40004FF6FF7707EA03172F433A43B64FB842EE
:100E50000ED0B64FB8420BD0B0F1804F08D0B44F8F
:100E6000B84205D0B34FB84202D0B34FB84206D112
:100E70004FF6FF57394046F48077394305E04FF28B
:100E8000FF57394044F48077394382830184F0BDB1
:100E9000028B4FF2FF331A400283028B4FF6FF732F
:100EA00003EA01231A4302837047F0B50C46154646
:100EB000002200210026078C4FF6EF7C07EA0C0782
:100EC0000784028B018C4FF6FF7707EA041640F681
:100ED000FF473A404FF6FF7707EA03373A434FF6AA
:100EE000FF7707EA05273A438F4FB8420ED08F4F5E
:100EF000B8420BD0B0F1804F08D08D4FB84205D02A
:100F00008C4FB84202D08C4FB84206D14FF6DF77F3
:100F1000394046F01007394305E04FF65F77394016
:100F200044F01007394302830184F0BD028B4FF671
:100F3000F3731A400283028B0A4302837047F0B5B1
:100F40000C46154600220021068C4FF6FE773E40E7
:100F50000684028B018C4FF60C7632407E1C06EA2A
:100F600003162E433243704EB0420ED06F4EB04245
:100F70000BD0B0F1804F08D06D4EB04205D06D4E11
:100F8000B04202D06C4EB04206D14FF6FD763140F1
:100F900044F00106314305E04FF6F576314044F068
:100FA0000106314302830184F0BD70B505460C464D
:100FB0005D4885420ED05D4885420BD0B5F1804F2B
:100FC00008D05B48854205D05A48854202D05A482D
:100FD000854200D100E000BF208850B92389A28853
:100FE00061882846FFF7ABFFE1882846FFF79EFFA0
:100FF00025E0208804280AD12389A2886188284610
:10100000FFF753FFE1882846FFF742FF17E02088EB
:1010100008280AD12389A28861882846FFF7FBFEA9
:10102000E1882846FFF7EEFE09E02389A28861885F
:101030002846FFF7A6FEE1882846FFF795FE70BD1B
:101040002DE9F04105460C4600260127608808B9C5
:10105000022600E00026A088012801D1022700E036
:1010600001272088A0B92389A28861882846FFF734
:1010700066FFE1882846FFF759FF23893A46314643
:101080002846FFF712FFE1882846FFF701FF13E02B
:101090002389A28861882846FFF707FFE188284650
:1010A000FFF7F6FE23893A4631462846FFF747FF09
:1010B000E1882846FFF73AFFBDE8F0810A884B88AF
:1010C0001A438B881A43CB881A430B891A434B89DE
:1010D0001A438B891A43A0F8442070474FF6FF71DA
:1010E000818000210180C180418001727047002110
:1010F000018041808180C180018141818181C181E4
:101100007047002101804180012181800021C18040
:10111000018170470021018041808180C18001816F
:101120004181818170470000002C01400034014062
:101130000004004000080040000C004021B102887B
:1011400042F00102028004E002884FF6FE731A406A
:101150000280704731B1B0F8442042F40042A0F858
:10116000442005E0B0F84420C2F30E02A0F8442069
:1011700070471AB183890B43838102E083898B43D3
:10118000838170478182704741EA0203A0F84830AA
:1011900070471AB183890B43838102E083898B43B3
:1011A0008381704701894FF6F872114001817047C1
:1011B0000A46002101894FF68F73194011430181BE
:1011C000704730B504460D4629462046FFF7F0FF2C
:1011D000208940F00700208130BD2DE9F041044610
:1011E0000D4616461F46602D06D13B46012231466C
:1011F0002046FFF75AFE05E03B46012231462046D5
:10120000FFF79DFE29462046FFF7D2FF208940F0D8
:1012100007002081BDE8F08130B50C46002101892E
:10122000C9B24FF6FF7505EA032515432543294347
:10123000018130BD2DE9F04105460E46174698461E
:10124000002443463A4631462846FFF7E5FF2C89FD
:101250004FF6F870044044F007044FF68F700440D6
:1012600044F070042C81BDE8F081F0B504460D46D1
:1012700016461F463B46324629462046FFF7CCFF1E
:10128000208940F480402081F0BD01858282704732
:101290000A46002101884FF68F73194011430180DF
:1012A0007047F0B50C4615461E460021002200236B
:1012B0000189028B038C4FF6F877394021434FF6B2
:1012C000FC473A4040F201173A434FF6DD773B4086
:1012D0004FF6FF7707EA06172F433B43018102834E
:1012E0000384F0BD0A460021018B4FF68F7319402D
:1012F0001143018370470A460021018B48F6FF73B2
:1013000019404FF6FF7303EA022319430183704724
:101310000A460021818B4FF68F7319401143818358
:1013200070470A460021818B48F6FF7319404FF63B
:10133000FF7303EA022319438183704721B10288B6
:1013400042F08002028004E002884FF67F731A4068
:101350000280704721B1828842F00402828004E05A
:1013600082884FF6FB731A408280704721B18288D1
:1013700042F00802828004E082884FF6F7731A4038
:101380008280704721B1828842F00102828004E0AD
:1013900082884FF6FE731A40828070470A46002109
:1013A000018B4FF6F77319401143018370470A46CA
:1013B0000021018B4FF2FF7319404FF6FF7303EAD0
:1013C00002231943018370470A460021818B4FF69F
:1013D000F77319401143818370470A460021818BBE
:1013E0004FF2FF7319404FF6FF7303EA02231943CC
:1013F000818370470A460021018B4FF6FB73194029
:101400001143018370470A460021018B4FF6FF33D9
:1014100019404FF6FF7303EA022319430183704713
:101420000A460021818B4FF6FB73194011438183DB
:1014300070470A460021818B4FF6FF3319404FF663
:10144000FF7303EA02231943818370470A46002190
:10145000018B4FF67F7319401143018370470A4691
:101460000021018BC1F30E014FF6FF7303EA022343
:101470001943018370470A460021818B4FF67F7321
:1014800019401143818370470A460021818BC1F3C3
:101490000E014FF6FF7303EA02231943818370475D
:1014A0000A460021018C4FF6FD7319401143018457
:1014B00070470A460021018C4FF6F773194011431B
:1014C000018470470A460021018C4FF6DF731940F2
:1014D0004FF6FF7303EA02131943018470470A466B
:1014E0000021018C4FF67F7319404FF6FF7303EA1A
:1014F00002131943018470470A460021018C4FF6FC
:10150000FF5319404FF6FF7303EA02231943018486
:1015100070470A460021018C4FF2FF7319404FF6C5
:10152000FF7303EA02231943018470470A4600212E
:10153000018C4DF6FF7319404FF6FF7303EA023337
:1015400019430184704730B5002301248C40A3B2B5
:10155000048C9C430484048C02FA01F5ADB22C4344
:10156000048430BD30B5002304248C40A3B2048C25
:101570009C430484048C02FA01F5ADB22C4304842C
:1015800030BD70B5034600200024184618300125F0
:101590008D40ACB21D8CA5431D8409B1082909D129
:1015A00000EB6100056825F07005056005681543CE
:1015B00005600EE00D1FC5F34E052844056825F4AF
:1015C000E045056005684FF6FF7606EA02263543DA
:1015D000056070BD21B1028842F00202028004E081
:1015E00002884FF6FD731A400280704721B10288CD
:1015F00042F00402028004E002884FF6FB731A40B6
:101600000280704721B1828842F08002828004E02B
:1016100082884FF67F731A408280704702884FF6A7
:10162000F7731A40028002880A430280704782885A
:101630004FF68F731A40828082880A4382807047F7
:1016400002894FF6F8731A40028102890A43028127
:10165000704702894FF67F731A40028102890A435C
:101660000281704781847047818570478186704709
:101670000187704781877047A0F840107047028843
:101680004FF6FF431A40028002880A4302807047E7
:101690000146888E70470146088F70470146888F43
:1016A00070470146B1F8400070470146888C70478A
:1016B0000146088D704702460020138A0B400BB18B
:1016C000012000E000207047CA430282704730B515
:1016D0000246002000230024158A05EA01039589AB
:1016E00005EA010413B10CB1012000E0002030BD77
:1016F000CA4302827047000010B50446FB4884428A
:1017000009D101218803FFF79FF800214FF48040A1
:10171000FFF79AF832E0F648844209D101214804E3
:10172000FFF79FF800214FF40030FFF79AF825E00B
:10173000F048844209D101218804FFF792F8002182
:101740004FF48020FFF78DF818E0EB48844209D170
:101750000121C804FFF785F800214FF40020FFF7AE
:1017600080F80BE0E548844208D101210805FFF725
:1017700078F800214FF48010FFF773F810BD2DE9C1
:10178000F04786B005460E460024A24600BFA1469B
:101790000027B08900B100BF2F462C8A4CF6FF709D
:1017A0000440F08804432C82AC894EF6F3100440C8
:1017B000B08831890843718908430443AC81AC8AFD
:1017C0004FF6FF400440B0890443AC8201A8FEF705
:1017D000B4FFC648874202D1DDF810A001E0DDF871
:1017E0000CA0A88900F4004040B10AEBCA0000EB4D
:1017F0000A1031684900B0FBF1F807E00AEBCA00B3
:1018000000EB0A1031688900B0FBF1F86420B8FBE6
:10181000F0F004012009642101FB1089A88900F47B
:10182000004040B1322000EBC900B0FBF1F000F005
:101830000700044308E0322000EB09106421B0FBEC
:10184000F1F000F00F0004432C8106B0BDE8F087F2
:101850004FF41651016000218180C18001810C216B
:10186000418100218181704710B502460020108A15
:101870004FF2FF0318400B884C8823438C88234386
:10188000CC8823431843108210BD00210180418081
:101890008180C180704721B1828942F400528281E7
:1018A00004E082894DF6FF731A4082817047F0B5DB
:1018B0000346002400260025002040F66A17B9429E
:1018C00000D100BF1846C1F3421401F01F060127E2
:1018D00007FA06F5012C01D10C3004E0022C01D1ED
:1018E000103000E014301AB107682F43076002E09F
:1018F0000768AF430760F0BD1AB1838A0B43838248
:1019000002E0838A8B4383827047028A4FF6F0732A
:101910001A400282028A0A430282704782894FF289
:10192000FF731A40828182890A438281704721B104
:10193000828942F00202828104E082894FF6FD73BF
:101940001A4082817047028A4FF6DF731A40028282
:10195000028A0A430282704721B1028A42F480421D
:10196000028204E0028A4BF6FF731A40028270473B
:10197000C1F308028280704701468888C0F30800DE
:101980007047818941F0010181817047028BD2B299
:101990000283028B42EA012202837047028B02F427
:1019A0007F420283028B0A430283704721B1828AFD
:1019B00042F02002828204E0828A4FF6DF731A40EE
:1019C0008282704721B1828A42F01002828204E052
:1019D000828A4FF6EF731A408282704721B1828A61
:1019E00042F00802828204E0828A4FF6F7731A40BE
:1019F0008282704721B1828942F40042828103E0F1
:101A00008289C2F30E028281704721B1828A42F438
:101A10000062828204E0828A4FF2FF731A4082825F
:101A20007047828A4FF6FB731A408282828A0A4389
:101A30008282704721B1828A42F00202828204E0EF
:101A4000828A4FF6FD731A40828270470246002058
:101A5000B1F5007F00D100BF13880B400BB101200E
:101A600000E00020704701F40072B2F5007F00D161
:101A700000BFCA430280704770B5024600240023AD
:101A80000025002040F66A16B14200D100BFC1F324
:101A9000421501F01F03012606FA03F3012D02D1BE
:101AA0009689334006E0022D02D1168A334001E0C8
:101AB000968A33400C12012606FA04F41688344044
:101AC00013B10CB1012000E0002070BD10B5002260
:101AD000002340F66A14A14200D100BF0A1201247B
:101AE0009440A3B2DC43048010BD000000380140E4
:101AF0000044004000480040004C004000500040BE
:101B000001460020FE4A106800F0380008431060CB
:101B10007047FB49096821F00801F94A1160114634
:101B20000968014311607047F549096821F0100107
:101B3000F34A116011460968014311607047F1488A
:101B4000EF494860F04848607047EE48EC4948600B
:101B5000ED4848607047EA48006940F08000E84975
:101B600008617047E648006940F08000E449086178
:101B700070470420E249C96801F0010109B1012060
:101B80000EE0DF49C96801F0040109B1022007E055
:101B9000DB49C96801F0100109B1032000E004200D
:101BA000704700B502460423FFF7E3FF034603E056
:101BB000FFF7DFFF0346521E012B01D1002AF7D1A8
:101BC00002B90523184600BD30B5044604254FF47C
:101BD0003020FFF7E6FF0546042D17D1C8480069FD
:101BE00040F00200C649086108464461006940F0BF
:101BF000400008614FF43020FFF7D3FF0546C0488E
:101C0000006941F6FD710840BD490861284630BDB4
:101C100010B504244FF43020FFF7C3FF0446042C12
:101C200016D1B748006940F00400B549086108467C
:101C3000006940F0400008614FF43020FFF7B1FF29
:101C40000446AF48006941F6FB710840AC490861A1
:101C5000204610BD00B502460423FFF78AFF034665
:101C600003E0FFF786FF0346521E012B01D1002A35
:101C7000F7D102B90523184600BD10B504244FF46E
:101C80003020FFF7E7FF0446042C16D19C4800697A
:101C900040F004009A4908610846006940F040009D
:101CA00008614FF43020FFF7D5FF044694480069DF
:101CB00041F6FB71084092490861204610BD0020A2
:101CC0008F49C96901F0020109B1012000E000203B
:101CD000704730B5A5250424FFF7F1FF00B10025BA
:101CE0004FF43020FFF75DFF0446042C3AD18548BD
:101CF00083498860844888600846006940F0200075
:101D000008610846006940F0400008614FF4302047
:101D1000FFF747FF0446042C1BD17948006941F6C0
:101D2000DF710840764908610846006940F01000FC
:101D3000086176480580E002FFF733FF0446052C72
:101D400010D06F48006941F6EF7108406C49086196
:101D500008E0052C06D06A48006941F6EF7108409A
:101D600067490861204630BD78B506460C46042513
:101D700000200090E802FFF714FF0546042D24D14F
:101D80005F48006940F001005D4908613480E80265
:101D9000FFF707FF0546042D10D1B01C0090200C62
:101DA00000990880E802FFF7FCFE054654480069E8
:101DB00041F6FE7108405249086106E0504800694A
:101DC00041F6FE7108404E490861284678BD70B55D
:101DD00004460D460426F002FFF7E3FE0646042EF5
:101DE00011D14748006940F001004549086125804C
:101DF000F002FFF7D6FE06464148006941F6FE7143
:101E000008403F490861304670BD70B505460E4632
:101E10000424E002FFF7C5FE0446042C17D139481C
:101E200037498860384888600846006940F01000EB
:101E300008612E80E002FFF7B4FE0446052C06D0B0
:101E40002F48006941F6EF7108402D49086120468E
:101E500070BD2DE9F04304464FF6FF763746B04695
:101E6000B1460425E443E6B2C4F30727C4F30748A8
:101E70004FEA1469E802FFF794FE0546042D49D1A4
:101E800020481F498860204888600846006940F063
:101E900010000861FF2E06D01C4808300680E802BA
:101EA000FFF77FFE0546042D08D1FF2F06D0174807
:101EB0000A300780E802FFF774FE0546042D0AD1B8
:101EC000B8F1FF0F07D011480C30A0F80080E802ED
:101ED000FFF767FE0546042D0AD1B9F1FF0F07D0C1
:101EE0000A480E30A0F80090E802FFF75AFE0546B7
:101EF000052D0FD00248006941F6EF71084007E058
:101F00000020024023016745AB89EFCD00F8FF1F99
:101F1000664908612846BDE8F08330B505460424CB
:101F20004FF43020FFF73DFE0446042C41D16048B9
:101F30005E4988605F4888600846006940F020007C
:101F400008610846006940F0400008614FF4302005
:101F5000FFF727FE0446042C22D15448006941F6BD
:101F6000DF710840514908610846006940F01000DF
:101F700008611DB100205049088002E0A5204E49AB
:101F800008804FF43020FFF70CFE0446052C10D0DB
:101F90004648006941F6EF7108404449086108E08D
:101FA000052C06D04148006941F6DF7108403F49E1
:101FB0000861204630BDF0B505460E46174604249C
:101FC0003B483A4988603B488860E002FFF7E9FDFA
:101FD0000446042C19D13548006940F010003349FB
:101FE000086147F0F800304328433349891C0880D2
:101FF000E002FFF7D6FD0446052C06D02B48006909
:1020000041F6EF710840294908612046F0BD274894
:10201000C069800870472548006A7047002023493E
:10202000096801F0200109B1012000E0002070479B
:1020300029B11E4A126902431C4B1A6104E01B4A73
:1020400012698243194B1A61704701460020012929
:1020500008D1164AD26902F001020AB1012008E053
:10206000002006E0114AD2680A400AB1012000E0CF
:10207000002070470D49C860704704200B49C968AB
:1020800001F0010109B101200EE00849C96801F021
:10209000040109B1022007E00449C96801F01001F8
:1020A00009B1032000E00420704700000020024036
:1020B00023016745AB89EFCD00F8FF1F0CB5002069
:1020C000019000906C48006840F480306A490860D4
:1020D00000BF6948006800F4003000900198401C7F
:1020E0000190009818B90198B0F5A06FF1D162483D
:1020F000006800F4003010B10120009001E00020E1
:1021000000900098012843D15C48006840F010001E
:102110005A4908600846006820F003000860084635
:10212000006840F002000860534840685249486027
:102130000846406848600846406840F4806048604F
:102140000846406820F47C1048600846406840F427
:10215000E81048600846006840F08070086000BFE2
:102160004548006800F000700028F9D042484068F7
:1021700020F00300404948600846406840F00200F3
:10218000486000BF3C48406800F00C000828F9D1C6
:102190000CBD10B5FFF792FF10BD10B536480068B2
:1021A00040F001003449086008464068344908405E
:1021B0003149486008460068324908402E490860A5
:1021C0000846006820F4802008600846406820F433
:1021D000FE0048604FF41F008860FFF7DAFF4FF001
:1021E00000602949086010BD10B5002100200022C0
:1021F000214B5B6803F00C0121B1042906D00829AA
:1022000028D107E0214B224C236027E01F4B204CB4
:10221000236023E0184B5B6803F47010164B5B6877
:1022200003F48032022303EB904022B9194B43435D
:10223000174C23600DE0104B5B6803F4003323B1AF
:10224000144B4343124C236003E0104B4343104CA8
:10225000236003E00D4B0E4C236000BF00BF064B14
:102260005B68C3F303130C4CE15C094B1B68CB4068
:10227000074C236010BD0000001002400020024007
:102280000000FFF8FFFFF6FE08ED00E000127A0004
:102290001400002000093D00180000200648804777
:1022A00006480047FEE7FEE7FEE7FEE7FEE7FEE73B
:1022B000FEE7FEE7FEE7FEE79B210008ED000008D1
:1022C00010B501210846FEF7A5FA01213348FEF7B3
:1022D000B6F810BD08B501211020FEF79BFA4FF4A7
:1022E0000050ADF8000010208DF8030003208DF899
:1022F000020069462A48FDF7D1FF08BD10B52948FC
:10230000007838B901202749087041032448FEF7B6
:1023100072F807E00020234908704FF4005120486C
:10232000FEF76BF810BD204A002105E012F8013BD2
:1023300000F8013B4B1CD9B20C29F7DB704710B5F4
:1023400088B06846FFF7EFFF0C21684600F0DCFF1D
:102350000446224615A1684603F0E6F8684600F0F8
:102360007DF9642000F0C3FF08B010BD10B5FFF781
:10237000A7FF00F031FD00F037FD00F0B5FD00F0E3
:10238000BFFA00F01FF8FFF7A5FF4FF4FA7000F056
:10239000AEFF4FF4E13000F097F810BD00023000BE
:1023A0000010014028000020E8F7FF1F0D0A4154EB
:1023B0002B4E414D453D312B313E32253034580DA9
:1023C0000A0000001CB53BA103C9CDE900016B4622
:1023D00001226B21682000F03AFB0DF1010301227C
:1023E0001921682000F033FB0DF1020301221A21AC
:1023F000682000F02CFB0DF1030301221B21682053
:1024000000F025FB01AB01221C21682000F01FFB1E
:102410001CBD38B504466B4602222146682000F0F8
:1024200029FB9DF801009DF8001000EB012000B28F
:1024300038BD70B50446002524B93B20FFF7E9FFFD
:1024400005460CE0012C04D13D20FFF7E2FF0546D4
:1024500005E0022C03D13F20FFF7DBFF05462846AD
:1024600070BD70B50446002524B94320FFF7D1FFA5
:1024700005460CE0012C04D14520FFF7CAFF0546B4
:1024800005E0022C03D14720FFF7C3FF054628468D
:1024900070BD10B50020FFF7E4FF08490880012057
:1024A000FFF7C7FF064908800220FFF7C2FF054972
:1024B000088010BD00070418010000002A00002059
:1024C0002C0000202E00002010B586B0044601210B
:1024D00044F20400FEF79EF94FF40070ADF81400CA
:1024E00018208DF8170003208DF8160005A97A48EA
:1024F000FDF7D4FE4FF48060ADF8140004208DF891
:10250000170005A97448FDF7C9FE01940020ADF835
:102510000800ADF80A00ADF80C00ADF810000C2072
:10252000ADF80E0001A96D48FFF729F9012240F22C
:1025300025516A48FFF7BBF901216848FFF7ABF95D
:102540004FF4A060FDF7DCFD25208DF80000002091
:102550008DF8010004208DF8020001208DF80300A1
:102560006846FDF7D2FD06B010BD10B586B0044632
:1025700001218804FEF75BF901210820FEF74AF9E2
:102580004FF48060ADF8140018208DF81700032078
:102590008DF8160005A95248FDF780FE4FF4006043
:1025A000ADF8140004208DF8170005A94C48FDF77C
:1025B00075FE1CB94FF41650019004E0012C02D1B5
:1025C0004FF4E13001900020ADF80800ADF80A00AA
:1025D000ADF80C00ADF810000C20ADF80E0001A90C
:1025E0004048FFF7CCF8012240F225513D48FFF763
:1025F0005EF901213B48FFF74EF94FF4A060FDF76B
:102600007FFD27208DF8000000208DF801000420B8
:102610008DF8020001208DF803006846FDF775FD76
:1026200006B010BD10B5044621462C48FFF7A0F9AE
:1026300000BF40212948FFF709FA0128F9D110BD50
:1026400070B504460D46002605E014F8010BFFF7AF
:10265000E9FF701C86B2AE42F7DB70BD70B5044670
:10266000204602F077F886B2002505E014F8010B49
:10267000FFF7D8FF681C85B2B542F7DB70BD10B517
:10268000044621461748FFF773F900BF402115485B
:10269000FFF7DCF90128F9D110BD70B504460D46ED
:1026A000002605E014F8010BFFF7E9FF701C86B265
:1026B000AE42F7DB70BD70B50446204602F04AF822
:1026C00086B2002505E014F8010BFFF7D8FF681C5F
:1026D00085B2B542F7DB70BD00080140003801400B
:1026E000000C01400048004008B50720009002E0BF
:1026F0000098401E009000980028F9D108BD10B540
:102700004FF40060E549086040100860FFF7ECFFF7
:10271000E2480838006808B9012000E0002000F411
:10272000006008B1002010BD4FF40060DB49091DB6
:102730000860FFF7D9FFD9480838006800F4006046
:1027400008B10020EFE74FF40060D449091D08608C
:10275000FFF7CAFF0120E6E710B54FF48060CF49CC
:10276000091D0860FFF7C0FF4FF40060CB49091D49
:102770000860FFF7B9FF4FF48060C8490860FFF7B1
:10278000B3FF4FF40060C5490860FFF7ADFF10BD0F
:1027900010B54FF48060C149091D0860FFF7A4FF20
:1027A0004FF40060BD49091D0860FFF79DFF4FF41D
:1027B0008060BA490860FFF797FF4FF48060B7491F
:1027C000091D0860FFF790FF10BD10B54FF4806041
:1027D000B249091D0860FFF787FF4FF40060AF4959
:1027E0000860FFF781FF4FF48060AC490860FFF795
:1027F0007BFF4FF48060A949091D0860FFF774FF53
:1028000010BD10B54FF48060A449091D0860FFF7A2
:102810006BFF4FF40060A1490860FFF765FF4FF4BC
:1028200080609E490860FFF75FFF9C480838006899
:1028300000F4006030B14FF480609849091D0860D1
:10284000002010BD4FF480609449091D08600120EC
:10285000F7E770B5044608251DE04FF480608F4906
:10286000091D0860FFF740FF04F0800020B14FF41D
:1028700000608A49086004E04FF400608749091D40
:1028800008606006040EFFF72FFF4FF48060834955
:102890000860FFF729FF281EA5F10101CDB2DCD1A8
:1028A0004FF480607D49091D086070BD70B5082532
:1028B000002428027949086016E06006040E4FF4EF
:1028C00080607649091D0860FFF70EFF4FF48060B5
:1028D00072490860FFF708FF70480838006800F484
:1028E000006008B144F00104281EA5F10101CDB239
:1028F000E3D14FF480606949091D0860204670BD2E
:1029000008B501210820FDF785FF4FF44060ADF8C0
:10291000000003208DF8020014208DF803006946A2
:102920005E481038FDF7BAFC08BD70B504460D4688
:102930001646FFF7E4FE08B9002070BD002141EA09
:102940004401C8B2FFF785FFFFF75BFF18B9FFF737
:1029500003FF0020F1E72846FFF77BFFFFF751FF59
:102960003046FFF776FFFFF74CFFFFF7F5FE01203B
:10297000E3E72DE9F04105460E4617469846FFF776
:10298000BEFE10B90020BDE8F081002141EA4501FA
:10299000C8B2FFF75EFFFFF734FF18B9FFF7DCFEA0
:1029A0000020F0E73046FFF754FFFFF72AFF00242E
:1029B0000BE018F80400FFF74CFFFFF722FF18B9EF
:1029C000FFF7CAFE0020DEE7641CBC42F1DBFFF724
:1029D000C3FE0120D7E72DE9F04105460F46144616
:1029E0001E46FFF78CFE10B90020BDE8F0810021E3
:1029F00041EA4501C8B2FFF72CFFFFF702FF18B903
:102A0000FFF7AAFE0020F0E73846FFF722FFFFF7A6
:102A1000F8FEFFF774FE012101EB4501C8B2FFF794
:102A200018FFFFF7EEFE0CE0FFF740FF3070012CBF
:102A300002D1FFF7CAFE01E0FFF7AAFE761C601E76
:102A4000C4B2002CF0D1FFF787FE0120CDE72DE9BD
:102A5000F04104460D4616461F463B46324629467F
:102A60002046FFF786FF10B10020BDE8F0814FF04F
:102A7000FF30FAE72DE9F04104460D4616461F46A1
:102A80003B46324629462046FFF7A5FF10B10020FD
:102A9000BDE8F0814FF0FF30FAE70000100C014074
:102AA00000B589B00121C802FDF7B4FE0121042060
:102AB000FDF7B0FE4FF40060ADF8140048208DF82B
:102AC000170005A97548FDF7E9FB0420ADF81400CF
:102AD00010208DF8170002208DF8160005A96F4808
:102AE000FDF7DCFB4FF6FF70ADF80C004720ADF8AA
:102AF00008000020ADF80E00ADF80A0002A96848F1
:102B0000FDF7C0FF0C20ADF818000020ADF81A004A
:102B10000120ADF81C000020ADF81E00ADF820002B
:102B200006A95F48FEF741FA1B208DF80400022039
:102B30008DF8050000208DF8060001208DF80700B3
:102B400001A8FDF7E2FA012211215548FEF711FB19
:102B500001215348FEF7F2FA09B000BD10B5042177
:102B60004E48FDF748FC142000F0B4FB04214B480C
:102B7000FDF743FC4B48007800F08000E8B149487D
:102B8000007800F03F0048490860084600880004CB
:102B900008600846006845490968084442490860D9
:102BA00008460068AA21484342F2107190FBF1F0F8
:102BB0003D49086000203B49086010BD10B5394808
:102BC000007800F0800000284CD101213448FEF745
:102BD0007EFDD0B13348007800F04000A8B1314804
:102BE000007800F03F003F280AD12E48006840F0EE
:102BF00080002C4908604FF6FF702C49086004E003
:102C000028480068401C2749086010212448FEF726
:102C10005EFD38B32348007800F0400078B12148C9
:102C2000006840F080001F4908601D48FEF739FD2C
:102C30001E49086000211A48FEF778FC12E00020C7
:102C4000184908601949086000211548FEF70AFD77
:102C50001448006840F04000124908600221104802
:102C6000FEF764FC11210E48FEF742FD10BD10B5C1
:102C70004FF400610948FDF7A4FB58B9322000F079
:102C800036FB4FF400610548FDF79BFB10B90120AE
:102C90000749086010BD06480068704700080140F9
:102CA000002C0140340000203C00002038000020AF
:102CB0004000002008B501210420FDF7ABFD0121F3
:102CC0000820FDF7A7FD1820ADF8000010208DF8B2
:102CD000030003208DF802006946B148FDF7DEFAD3
:102CE0000320ADF800006946AE48FDF7D7FA182179
:102CF000AB48FDF780FB0321AA48FDF77CFB08BD2C
:102D000008B501210220FDF792FD01210420FDF705
:102D100081FD01210820FDF77DFDC020ADF80000F8
:102D200018208DF8030003208DF8020069469C48A6
:102D3000FDF7B4FA08BDF0B587B0002700240025E0
:102D4000002640F2E730ADF814000320ADF8100083
:102D50000020ADF81600ADF8120004A99248FDF766
:102D600091FE6020ADF800000120ADF802000020C7
:102D7000ADF80800ADF8067069468B48FDF7BFFE58
:102D800008218948FEF70AFBADF8064069468648E7
:102D9000FDF7F7FE08218448FEF709FBADF8065061
:102DA00069468148FDF73AFF08217F48FEF70CFB92
:102DB000ADF8066069467C48FDF77BFF08217A483C
:102DC000FEF70BFB01217848FEF7B8FA012176489F
:102DD000FEF7B4F907B0F0BD10B5FFF76BFFFFF7D2
:102DE0008FFFFFF7A8FF10BD00B589B0012108468D
:102DF000FDF71DFD01210D20FDF70CFD01216B48A4
:102E0000FDF71DFB01216A48FDF719FB02A8FDF73C
:102E1000D0FA4FF40040ADF8080004208DF80B0004
:102E200003208DF80A0002A95D48FDF737FA02A8D1
:102E3000FDF7BFFA0820ADF8080004208DF80B005C
:102E400003208DF80A0002A95648FDF727FA1C2036
:102E50008DF8040000208DF8050003208DF8060091
:102E600001208DF8070001A8FDF74FF94FF08040D1
:102E7000FDF734FD06A8FEF731F90020ADF8180083
:102E80004FF6FF70ADF81C000020ADF81E00ADF845
:102E90001A0006A94FF08040FDF7F4FD00231A4602
:102EA00003214FF08040FEF7FCF903A8FEF729F953
:102EB0000620ADF8140003A94FF08040FEF775F826
:102EC00001218807FEF700FC012211469007FEF75A
:102ED00050F900214FF08040FEF7C4FB0121880724
:102EE000FEF72CF909B000BD00B587B00121042020
:102EF000FDF79DFC01210820FDF78CFCC020ADF8FA
:102F0000000004208DF8030069462648FDF7C6F945
:102F100004A8FEF7E3F80020ADF810004FF6FF70AC
:102F2000ADF814000020ADF81600ADF8120004A9A9
:102F30002048FDF7A7FD00231A4603211D48FEF790
:102F4000B0F901A8FEF7DDF80A20ADF80C0001A9E0
:102F50001848FEF72AF801211648FEF7B5FB0122B2
:102F600011461448FEF705F900211248FEF77AFBD6
:102F700001211048FEF7E2F807B000BD10B50121AD
:102F80008807FEF7A1FB10BD0A48103000880948E9
:102F90001030008820F00100064910310880704789
:102FA00000080140000C0140000400400002300015
:102FB000000118000008004008B501210420FDF7B9
:102FC00029FC01210820FDF725FC48208DF803008D
:102FD0004FF40140ADF8000069463048FDF75EF956
:102FE0002820ADF8000069462D48FDF757F908BDC7
:102FF00010B5002408212A48FDF7E3F910B144F088
:10300000040418E020212648FDF7DBF910B144F054
:10301000010410E04FF400412048FDF7D2F910B14F
:1030200044F0100407E04FF480711C48FDF7C9F923
:1030300008B144F04004204610BD10B50024202102
:103040001748FDF7BEF9012801D1601CC4B2082160
:103050001348FDF7B6F9012801D1601CC4B24FF442
:1030600000410E48FDF7ADF9012801D1601CC4B242
:103070004FF480710948FDF7A4F9012801D1601CC3
:10308000C4B2042C02D101200649087010BD0548C5
:10309000007808B9012070470020FCE700080140D3
:1030A000000C01404400002000200DE0244931F8CC
:1030B0001010002906DD224931F81010491E204A5F
:1030C00022F81010411CC8B20528EFDB704770B51C
:1030D000FFF78AF81B4800684FF47A72B0FBF2F1F0
:1030E000B1F1807F01D301201DE021F07F40401E1F
:1030F0004FF0E022506150170F22002807DA130723
:103100001D0E114B00F00F04241F1D5503E0130783
:103110001C0E0E4B1C5400BF00204FF0E0229061AB
:1031200007201061002008B100BFFEE74FF0E0204B
:10313000006940F001004FF0E021086170BD00001F
:10314000940100201400002018ED00E000E400E0ED
:1031500010B51B48008800B110BD4FF47A701849B3
:10316000088018480088401C1649088016480078D6
:1031700008B100F099F9FFF7C1F800BFECE7FFF7DD
:10318000F5F800F08BFCFFF7A2FF4FF0FF300F497E
:1031900008600021084601F015F90FE0FFF7D8FF9D
:1031A0000748408850B914200549488000F0F6F8D7
:1031B000052000F09CF8064800F088F9EEE70000D2
:1031C0009401002004010020450000205000002050
:1031D00014010020704700BFFEE700BFFEE700BFFC
:1031E000FEE700BFFEE7704770477047704710B5B5
:1031F000FFF75AFF31480078401C304908703048CA
:103200000078401C2E49087001F00EF82B48007819
:10321000052805DB00202949087000F079FE2CE024
:1032200026480078012804D1FFF733F900F0A4FE06
:1032300023E022480078022802D100F022FF1CE09F
:103240001E480078032810D11E480078401C1D49F4
:1032500008700846007805280FDB00F051FF0020B9
:10326000184908701649087007E0144800780428C7
:1032700003D100F0E2FC00F05FFD10BD10B540F29C
:1032800025511148FEF7F8FBB8B1104800788028A6
:1032900002DB00200D4908700B48FEF76DFBC1B240
:1032A0000A4802780078401C084B1870084881547E
:1032B00040F225510448FEF709FC10BD48000020EB
:1032C0004A00002049000020003801403000002062
:1032D00014010020014605E0002001E0421CD0B2AC
:1032E0000A28FBDB0A1EA1F10101F5D1704710B5D8
:1032F000044603E04FF47A70FFF7ECFF201EA4F1C0
:103300000104F7D110BD704730B5024600230020FC
:1033100000BF04E012F8014B60405C1CE3B28B423A
:10332000F8DB30BDF0B505460E46144600273146A1
:103330002846FFF7E9FF0746A74201D10120F0BD6B
:103340000020FCE730B502460020002305E012F81B
:10335000015B2C18E0B25C1CE3B28B42F7DB30BDA2
:1033600030B502460B464FF6FF70002112E0555C67
:10337000684000240AE000F0010525B14AF2010589
:1033800085EA600000E04010651CECB2082CF2DB1E
:103390004D1CE9B29942EADB30BD00002DE9F0474F
:1033A0008CB0FE49FE48006801F0FEF9824601F04B
:1033B000B6FC04460D46F949FA48006801F0F4F9F4
:1033C000824601F0ACFC06460F46F449F648006818
:1033D00001F0EAF9824601F0A2FC804642460B4623
:1033E000F2A104A8CDE90067CDE9024502F09CF8FE
:1033F00004A8FFF733F90CB0BDE8F0872DE9F047DA
:103400008CB08246BAF1000F1BD1ED49886801F0FB
:1034100086FC04460D46EA49486801F080FC0646F1
:103420000F46E749086801F07AFC804642460B46A1
:10343000E4A104A8CDE90067CDE9024502F074F8E3
:103440001DE0BAF1010F1AD1E349886801F067FC69
:1034500004460D46E049486801F061FC06460F4607
:10346000DD49086801F05BFC804642460B46DBA163
:1034700004A8CDE90067CDE9024502F055F804A89B
:10348000FFF7ECF80CB0BDE8F08700B589B0D8487C
:10349000D84BD94AD9A1009001A802F045F801A85B
:1034A000FFF7DCF809B000BD00B589B0D748008847
:1034B00000EB80004200D6480388D6A101A802F0A4
:1034C00033F801A8FFF7CAF809B000BD2DE9FC5F89
:1034D000064634461EE2207823287DD1D048007865
:1034E000012836D1CFA1204601F022F920B10021D8
:1034F000084600F067FF2CE0CCA1204601F018F947
:1035000038B3241DCBA1204601F02CF9C9A100201D
:1035100001F028F9009002F0E3FE074601F042FCBA
:103520008346C5A1002001F01DF9009002F0D8FEED
:10353000074601F037FC0190C049019801F08CF971
:103540000746BE49584601F087F98046394600F0E3
:1035500039FFB8A1601C01F005F9009002F0C0FE2F
:10356000074601F0C3FBC5B2002D35DD642D33DA0B
:103570000A2D14DA6119081DB1A101F0F3F80090C9
:1035800002F0AEFE074601F0B1FB00F0FF094A462B
:103590002946E01CFFF7C6FE8246E41C13E06119D1
:1035A000481DA7A101F0DEF8009002F099FE074641
:1035B00001F09CFB00F0FF094A462946201DFFF759
:1035C000B1FE8246241DBAF1000F05D09448007860
:1035D000012865D19BA100E09BE1204601F0A8F8FD
:1035E00020B10021084600F0EDFE59E096A12046EA
:1035F00001F09EF838B38FA1204601F0B3F88DA1F9
:10360000002001F0AFF8009002F06AFE074601F0DA
:10361000C9FB834688A1002001F0A4F8009002F0C5
:103620005FFE074601F0BEFB01908449019801F05E
:1036300013F907468149584601F00EF9804639468C
:1036400000F0C0FE2CE081A1204601F071F838B3F3
:1036500078A1204601F086F876A1002001F082F8DA
:10366000009002F03DFE074601F09CFB834672A1EC
:10367000002001F077F8009002F032FE074601F0DA
:1036800091FB01904FF08041584601F017F9074631
:103690006F49019801F012F98046394600F092FE18
:1036A0006CA1204601F044F818B101205C49087073
:1036B0002FE169A1204601F03BF818B103205849D9
:1036C000087026E165A1204601F032F838B10420E7
:1036D000534908705E49002000F074FE19E160A1B2
:1036E000204601F025F818B102204D49087010E17C
:1036F0005CA1204601F01CF870B34EA1204601F0F9
:1037000031F84CA1002001F02DF8009002F0E8FD06
:10371000074601F047FB2A49086046A1002001F056
:1037200021F8009002F0DCFD074601F03BFB244944
:10373000486041A1002001F015F8009002F0D0FD92
:10374000074601F02FFB1E498860002000F09FFF14
:103750000020FFF753FEDCE043A1204600F0E8FF25
:10376000D0B134A1204600F0FDFF32A1002000F0CE
:10377000F9FF009002F0B4FD074601F013FB164973
:1037800008602CA1002000F0EDFF009002F0A8FDE1
:10379000074601F007FB69E07EE0000000003443CB
:1037A000BC000020C0000020C4000020562C252EA4
:1037B00030662C252E30662C252E30660D0A000032
:1037C0009000002041502C252E32662C252E32668A
:1037D0002C252E32660D0A009C00002053502C250B
:1037E0002E32662C252E32662C252E32660D0A00CE
:1037F00016630008106300080A630008492C25734B
:103800002C25732C25730D0A0000000006010020F2
:1038100004010020522C25642C25640D0A000000B0
:10382000080100204B4B4353000000004B4B434A20
:10383000000000002C0000002A00000000002041D1
:103840003B00000043530000434A0000434D00008A
:103850000000A040534E4B005355460053554100C5
:10386000534954005341500053535000414948605C
:10387000AFF23C01002000F075FF009002F030FD37
:10388000074601F08FFA3B498860012000F0FFFEF7
:103890000120FFF7B3FD3CE037A1204600F048FFD0
:1038A00018B10020FFF7AAFD33E034A1204600F054
:1038B0003FFF18B10120FFF7A1FD2AE030A120460B
:1038C00000F036FF30B1002000F0FCFE0020FFF7D2
:1038D00095FD1EE02BA1204600F02AFF30B101200B
:1038E00000F0F0FE0120FFF789FD12E026A120463E
:1038F00000F01EFF28B1012024490870FFF7C5FD24
:1039000007E023A1204600F013FF10B100201F495B
:103910000870641CA01B1F4909788842FFF6DBADC4
:1039200000201C49087080211B4800F0F6FEBDE80D
:10393000FC9F70B5044625460EE018A1284600F00D
:10394000F7FE08B1012070BD15A1284600F0F0FE79
:1039500008B10120F7E76D1C281B0E490978884241
:10396000EBDB00200B49087080210B4800F0D5FEEE
:103970000020E8E79C0000204741500047535000DA
:103980005241000052560000524200004500002003
:103990005253000030000020140100204F4B000063
:1039A0002B0000002DE9F84F05460E46F84F4FF06A
:1039B0007E58741B204601F047F94146009000F004
:1039C0004BFF8246F3490968601A01F03DF9394618
:1039D000009000F041FF8346514600F0E5FE81462D
:1039E00001F04CF9EC490860EA480460EB480068D3
:1039F00009680844E949086008460068B0F57A7F1C
:103A000002DB40F2E7300860E448006810F57A7F96
:103A100002DCE348E1490860E0480068BDE8F88F4F
:103A20002DE9F84F05460E46D94F4FF07E58AC1B96
:103A3000204601F009F94146009000F00DFF824652
:103A4000D8490968601A01F0FFF83946009000F083
:103A500003FF8346514600F0A7FE814601F00EF9B0
:103A6000D1490860CF480460D0480068096808441C
:103A7000CE49086008460068B0F57A7F02DB40F264
:103A8000E7300860C948006810F57A7F02DCC44856
:103A9000C6490860C5480068BDE8F88F0020C449E1
:103AA0000880C4490880C4490860C4490860C44902
:103AB0000860C4490860C4490860C4490860C44932
:103AC0000860C4490860C4490860C4490860C44922
:103AD0000860C4490860C4490860C4490860C44912
:103AE0000860C4490860C4490860C4490860C44902
:103AF0000860C4490870C4490870C4490870704718
:103B000070B504460D460021C148006801F066F911
:103B100034D13C2C0DDD3C2D0BDDBE49AD48006899
:103B200001F066F905D2BC49AA48006801F056F9CF
:103B300011D314F13C0F1DDA15F13C0F1ADAB54917
:103B4000A448006801F054F914D2B349A1480068B0
:103B500001F044F90ED2B1480088401CAF490880FA
:103B60000846008832280CDD002008800120AC497E
:103B7000086006E00020A949088002E00020A7496B
:103B8000088070BD70B5A648006800B970BDA54931
:103B90009048006801F02CF948D2A3498D4800688C
:103BA00001F01CF942D2A1480088401C9F490880BE
:103BB0000846008832283EDB002008809C480168C7
:103BC0008448006800F042FE064601F0A8F804466A
:103BD000984A994B01F0B6F820D2954801687D4883
:103BE000006800F033FE064601F099F80446914A59
:103BF000924B01F0BFF811D291480088401C9049C7
:103C000008800846008804280BDB002008808749CC
:103C100008806F4908608249086002E000208849F6
:103C200008806C4800688249086004E000207F49F1
:103C300008808349088000BFA8E710B55C48B0F948
:103C400000105C48B0F90000FFF75AFFFFF79AFF39
:103C50007348006830B17B48007840F00200794931
:103C6000087005E07748007820F002007549087078
:103C700069495848006801F0BBF805D365495548C3
:103C8000006801F0ABF806D26E48007840F00400FE
:103C90006C49087005E06B48007820F00400694921
:103CA000087010BD70B504460D46002C09DA0821D5
:103CB0006548FCF7A0FB10216348FCF79EFB6442BB
:103CC00007E010216048FCF796FB08215E48FCF7EE
:103CD00094FB002D09DA01215C48FCF78CFB0221E2
:103CE0005A48FCF78AFB6D4207E002215748FCF76F
:103CF00082FB01215548FCF780FBB5F57A7F01DB9B
:103D000040F2E735B4F57A7F01DB40F2E7344D4805
:103D1000007840B100214E48FDF7A8FC00214C4836
:103D2000FDF7A6FC07E0A1B24948FDF79FFCA9B248
:103D30004748FDF79DFC70BD70B52A4801682A48C8
:103D4000006800F083FD04462A480168204600F020
:103D50007DFD27490860234801682348006800F07A
:103D600075FD044623480168204600F01DFD1F49EB
:103D700008601F48006800F081FF00286ADD00210C
:103D80001B48006800F010FD194908606FE061E011
:103D900033337340E0000020E8000020E4000020FE
:103DA00019FCFFFFEC000020F4000020F0000020D0
:103DB0006E0000206C0000207400002070000020C5
:103DC0007C00002078000020880000208000002077
:103DD0008C000020BC000020C0000020C400002097
:103DE000B80000205400002060000020680000207F
:103DF00064000020AC000020A8000020B0000020DB
:103E0000B400002048000020490000204A000020A3
:103E1000840000200000F0C10000F041F800002004
:103E2000D00000200000A0C00000A040020100203F
:103E3000FC0000209A9999999999E93F9999E9BFCD
:103E4000000100204D00002000080140000C01404E
:103E500000040040FE48006800F010FF002806DA69
:103E60000021FB48006800F0F1FCF9490860F948BE
:103E7000006800F003FF002807DD0021F548006816
:103E800000F092FCF34908600CE0F248006800F092
:103E9000F5FE002806DA0021EE48006800F0D6FCA6
:103EA000EC490860EA48006800F0E8FEB0F57A7F67
:103EB00002DBE948E6490860E548006800F0DEFEFC
:103EC00010F57A7F02DCE548E1490860E1480068C6
:103ED00000F0D4FEB0F57A7F02DBDF48DD490860F0
:103EE000DC48006800F0CAFE10F57A7F02DCDB488F
:103EF000D8490860D748006800F0C0FE0446D4489E
:103F0000006800F0BBFE05462146FFF7CBFE70BD02
:103F10004FF08040808C00B2D149088000204FF0E3
:103F200080418884CF480088404200B2CE49088052
:103F30000020CC490880CD480068C949B1F900107B
:103F40000844CA490860CA480068C749B1F9001066
:103F50000844C7490860C7480068C149B1F9001062
:103F6000401AC4490860C4480068BF49B1F900104C
:103F7000401AC149086070472DE9F04F87B0BF482B
:103F8000B0F9000000F069FE06460022BC4B00F0CC
:103F9000ECFDCDE90201BB48B0F9000000F05DFE88
:103FA00006460022B64B00F0E0FD8046DDE9022324
:103FB00002F0D6F804460022B34B00F064FDB34A89
:103FC000B34BCDE9040100F0D0FD824600F0EAFEDB
:103FD000B0490860B048006800F036FE0446AD48BD
:103FE0000168204600F035FCAA490860AB48B0F9EA
:103FF000000000F032FE06464FF06632A84B00F09B
:10400000B4FD044600F053FE00B2A44908800846FF
:10401000B0F9000000F018FEA24908609D48006851
:1040200000F07DFE0446A04AA04B00F02CFDCDE937
:1040300002019C48006800F072FE82469A4A9C4B3E
:1040400000F021FD06460F469A48006800F067FE22
:10405000804632463B4600F06FFC0446964A974B3A
:1040600000F011FDCDE90001DDE9022300F064FC60
:10407000CDE9040100F096FE8E49086007B0BDE866
:10408000F08F2DE9F04F87B08D4988688D4900F099
:1040900015FC074683480168002000F0D7FB8046E6
:1040A000394600F0D9FB064600F039FE04460D46BD
:1040B0008349086800F033FECDE900017D480068BF
:1040C00000F02DFE8046804A804B00F0D9FC064669
:1040D000DDE9002300F0D7FC00227D4BCDE9020191
:1040E00000F0D1FC22462B46CDE9040100F024FC6F
:1040F000824600F057FE7749086007B0BDE8F08FB0
:104100002DE9FE4F59490968594A1268881800F08C
:10411000A4FD06460022704B00F0B5FC044600F0FA
:1041200041FE6E4908600020514908604F4908600F
:104130006A48006800F0F3FD06464FF03332684BE2
:1041400000F0A1FC04460D466648006800F0E7FD5B
:1041500006464FF06632644B00F095FC80462246DE
:104160002B4600F0E9FB824600F01CFE5B4908602C
:10417000084600685B4908605C4800680090574842
:104180000168009800F062FB0090594801680098AF
:1041900000F062FB02905649486800F0C0FD82467C
:1041A0000022544B00F0E1FC06460F46009800F058
:1041B000B6FD804632463B4600F065FC044600F002
:1041C000F1FD01904C480199006800F0EDFA4A4970
:1041D00008604A4801684848006800F0E5FA464926
:1041E00008600846006800F049FD00B2B0F52F7F76
:1041F00002DD4348404908603F48006800F03EFD4A
:1042000000B210F5617F02DA3E483B4908603E4843
:1042100000683E49086038480168029800F0C4FA16
:1042200039490860BDE8FE8F2DE9F0413748016843
:104230003548006800F00AFB064635480078401C07
:1042400000F002FD0746314600F006FB054661E03E
:10425000640000206800002000C0794400C079C4D8
:104260006C000020240800406E0000207800002030
:104270007C000020C8000020CC0000202E00002080
:104280000000D0402C000020008066401F85EB51CC
:10429000B81E0940C4000020500000202A00002061
:1042A00066663040C00000207B14AE47E17A943F40
:1042B000E17A743FBC0000205C8FC2F5285CEF3FC0
:1042C0009000002000002041CDCCCCCCCCCCFCBF59
:1042D00000001440600000200000E03F800000204B
:1042E0003333D33F880000206666E63F8400002019
:1042F0009C000020000024408C000020A80000202A
:1043000000002F44000061C45C0000205800002021
:104310004A000020834900F0D1FA0446824801682F
:10432000204600F041FA81490860BDE8F0812DE99E
:10433000FC5F8146884614461D460C9E2146404639
:1043400000F04CFD17D22946304600F07FFA414676
:104350000190204600F07AFA0090019900F0AEFA40
:1043600082464146484600F071FA8346514600F0C5
:10437000A5FA074616E02946304600F067FA83465C
:104380002146404600F062FA5946009000F096FA45
:1043900082464146484600F05CFA5146019000F0E2
:1043A0008DFA07463146384600F022FD01D23746E5
:1043B00005E02946384600F011FD00D22F46384668
:1043C000BDE8FC9F38B505460C460021284600F0A4
:1043D0000FFD0AD256480023564A19460090284637
:1043E000FFF7A5FF544908600BE051480023534AEA
:1043F000194600902846FFF79AFF80F000404E498A
:1044000008600021204600F0F3FC0AD24C4800234B
:10441000484A194600902046FFF789FF494908603D
:104420000BE047480023454A194600902046FFF715
:104430007EFF80F000404349086038BD10B5044657
:10444000FCB941480068002808DB3F4800680C2898
:1044500004DC3E490020FFF7B5FF34E03A4800682D
:10446000122809DD384800681E2805DC4FF081411C
:104470000020FFF7A7FF26E000210846FFF7A2FF74
:1044800021E0012C1FD13048006800280EDB2E48A7
:10449000006814280ADC00212D48FFF793FF40F242
:1044A000DC502C49086040422B49086029480068CC
:1044B000002808DA28480068002804DD4FF0814110
:1044C0000020FFF77FFF10BD70B500250026FEF726
:1044D0008FFD044604F0040008B1184D1AE004F002
:1044E000020008B11D4D15E004F0010008B1174DA0
:1044F00010E004F0400008B10E4D0BE004F0200085
:1045000008B1174D06E004F0100010B14FF08145DE
:1045100000E000254FF0814631462846FFF752FF64
:1045200070BD00000000C841580000205400002069
:104530000000C84300002041AC000020000020C162
:1045400000002F43840000203C000020000080C0B9
:104550000000A040C8000020CC0000200000C0C027
:104560000000C0402DE9F04106460D4617460024E4
:10457000FDF7E5FA3520FDF77DFD00BF05E05F485A
:10458000205C5F490855601CC4B2802CF7DB002416
:1045900006E015F8010B3119594A5054601CC4B299
:1045A000BC42F6DB5548FDF70FFB002407E0544AF8
:1045B0001159524AA018FDF7D7FB201DC4B2802C18
:1045C000F5DB3520FDF756FDFDF7C5FABDE8F081B6
:1045D00010B50346002006E0484C1C44245C01F85A
:1045E000014B441CE0B29042F6DB10BD08B501223D
:1045F00069463220FFF7ECFF9DF80000012805D145
:104600000C2240493320FFF7E3FF04E00C223D4930
:104610000220FFF7DDFF012269464820FFF7D8FF9F
:104620009DF80000012805D10C2237494920FFF7E9
:10463000CFFF04E00C2234491220FFF7C9FF08BD68
:1046400008B5022269460020FFF7C2FF9DF800006E
:10465000A52806D19DF801005A2802D1FFF7C6FF10
:1046600014E0A5208DF800005A208DF801000222E8
:1046700069460020FFF776FF0C2222490220FFF74F
:1046800071FF0C2220491220FFF76CFF08BD38B5DE
:1046900004460120009054B9012269463220FFF7F8
:1046A00061FF0C2217493320FFF75CFF09E001226C
:1046B00069464820FFF756FF0C2213494920FFF7AF
:1046C00051FF38BD38B504460020009054B901228E
:1046D00069463220FFF746FF0C220A490220FFF705
:1046E00077FF09E0012269464820FFF73BFF0C22D3
:1046F00005491220FFF76CFF38BD000000F00008EC
:104700009E010020900000209C000020D2B201E019
:1047100000F8012B491EFBD270470022F6E710B5C6
:1047200013460A4604461946FFF7F0FF204610BD1F
:1047300030B505462A460B4612F8010B13F8014B1B
:1047400008B1A042F8D01CB1002802D06D1CF1E7DE
:10475000284630BD421C10F8011B0029FBD1801AED
:104760007047000070B50F4D00B92868002412E0B2
:104770000A4602E09E4203D0521C1378002BF9D166
:10478000DAB2224305D02BB124B1002100F8011B7D
:1047900004E00446401C0678002EE9D1286020463B
:1047A00070BD00000C010020F0B480EA0102D40FBB
:1047B0004200B2EB410F02D20246084611464A00BF
:1047C00042D0C30DDDB2C1F3C752AD1A202D35DA88
:1047D000C1F3160141F4000204B15242C5F12006B2
:1047E00002FA06F12A411044B3EBD05F23D0C4B1E2
:1047F000012DA0EBC35009DCF0BC4FF0004202EAEF
:10480000C352DBB200F5000000F0CBBB400000F16A
:10481000807000EBC350A0F1807040EAD170490075
:1048200009E0490841EAC071A0EBC35000F500005F
:10483000400800EBC350F0BC00F0AABB614201226B
:1048400002EB4101001BF6E7F0BC704781F000412C
:10485000AAE780F00040A7E780EA010210B502F065
:104860000043400022D04A001FD0010E01EB12612C
:10487000C0F35600C2F3560240F4000042F40002B6
:10488000A0FB022000047F39140400D0401C50EA31
:10489000124001D44000491EC2B20C0604EBD010F5
:1048A000401C4008802A02D003E0002010BD20F008
:1048B0000100002900DA0020184310BD30B480EA5E
:1048C000010202F0004530F0004221F0004013D018
:1048D00090B1C30DD40DC2F31601C0F31600E41A53
:1048E00041F4000140F400027D34914201D3641C84
:1048F00000E04900002C02DA30BC002070474FF481
:1049000000000023914201D3891A034340084FEA73
:104910004101F7D151B1914202D14FF0004105E080
:1049200002D24FF0010101E06FF0010103EBC4502E
:10493000284430BC00F02CBB2DE9FE4F804681EAB4
:104940000300C00F0C46009021F0004123F0004509
:10495000B8EB0200A94105D24046214690461C46CC
:104960000B46024623F00040104347D0270DC7F303
:104970000A00C3F30A510290401A019040286BDAF2
:10498000C3F3130040F4801B0098924620B100232B
:10499000D2EB030A63EB0B0B01985946C0F14002BE
:1049A000504600F076FA06460D4650465946019AA2
:1049B00000F08EFA10EB08006141002487EA1152E2
:1049C00084EAE7731A4340D0009A62B3019A012A3D
:1049D0004FEA075215DC001B61EB02014FF0004269
:1049E00002EA0752CDE90042001C41F5801132462F
:1049F0002B4600F013FB03B0BDE8F08F4046214684
:104A0000F9E7001B61EB0201001C41F5801300185F
:104A10005B412018A2F5001747EB030140EAD5706F
:104A2000B6196D4111E06D084FEA360645EAC075CA
:104A30004FEA0752001B61EB0201001C41F5801197
:104A400049084FEA30000019514132462B4603B065
:104A5000BDE8F04F00F0D3BA0098012240000023D7
:104A6000D0EB020263EBE073009821464FEAE0745A
:104A7000B8EB000061EB0401E9E783F000435BE77A
:104A800081F0004158E72DE9FE4F81EA030404F06C
:104A9000004421F0004100944FF0000B23F000434C
:104AA00050EA01045ED052EA03045BD0C3F30A5417
:104AB000C1F30A552C44A4F2F3340194A0FB025430
:104AC000C1F3130141F48011C3F3130343F48013C2
:104AD00001FB024400FB034E840A970A44EA815416
:104AE00047EA8357A4FB076802958D0A05FB0785F3
:104AF0004FEA932C04FB0C542705029D4FEA0658FD
:104B000047EA1637B5EB08056EEB070C870E920ED9
:104B100047EA811742EA8312A7FB0201B6EB0B01B9
:104B200064EB00042B0D43EA0C335E1844EB1C507D
:104B3000DA465146E7FB0201C5F313044FEA0B3393
:104B400043EA14534FEA0432019C43EA0603A4F1FA
:104B50000C040294009CCDE900B400F05FFA03B0AD
:104B6000BDE8F08F00200146F9E72DE9F04D81EA1C
:104B7000030404F0004B21F0004514464FF0000AF6
:104B800023F0004150EA050220D054EA01021DD072
:104B9000C5F30A570246C5F31303C1F31300C1F36B
:104BA0000A5640F4801543F48013A7EB0608101B47
:104BB000D64608F2FD3873EB050002D308F1010870
:104BC00001E092185B41B8F1000F03DA00200146C2
:104BD000BDE8F08D00204FF48011064684460EE0BB
:104BE000171B73EB050705D3121B63EB0503064385
:104BF0004CEA010C49084FEA300092185B4150EA38
:104C00000107EDD152EA030012D082EA040083EAE0
:104C10000501084305D0101BAB4106D20122002339
:104C200006E000224FF0004302E06FF00102531053
:104C30001AEB06004CEB085110EB0A0041EB0B019C
:104C4000BDE8F04D00F0DBB9C10F80EAE070084428
:104C5000CA079623002100F0A4B90EB5C10F80EA5F
:104C6000E0700844CA07002140F233438DE80E008B
:104C70000A460B4600F0D2F903B000BD00F0004236
:104C800020F00040C10DC0F3160040F400007F2961
:104C900001DA00207047962903DCC1F19601C84073
:104CA00001E096398840002AF4D04042704770B540
:104CB000C1F30A5201F000450024C1F3130140F290
:104CC000FF3341F480119A4201DA002070BD40F2B6
:104CD00033439A42A2F2334203DC524200F0E8F836
:104CE00000E090402C43F1D0404270BDC1F30A5225
:104CF00010B5C1F3130140F2FF3341F480119A4221
:104D000001DA002010BD40F233439A42A2F233424E
:104D100003DC524200F0CCF810BD904010BD00F012
:104D2000004230F000400AD0C10D01F56071C0F3BF
:104D3000160042EA0151C2084007114370470020A3
:104D40000146704730B5041E71F1000404DB4FF0DA
:104D50000044404264EB0101141E73F1000405DBC2
:104D60001C464FF00043524263EB04038B4208BFE2
:104D7000824230BD30B5041E71F1000404DB4FF0F7
:104D80000044404264EB0101141E73F1000405DB92
:104D90001C464FF00043524263EB0403994208BFA4
:104DA000904230BD01F0004330B421F0004150EAA0
:104DB000010206D00A0DA2F56072C1F31301002AA8
:104DC00002DC30BC00207047440F44EAC104C1003B
:104DD000E01830BC00EBC25000F0DAB8002801DB6C
:104DE000C0F10040002901DBC1F100418142704760
:104DF000002801DBC0F10040002901DBC1F10041C6
:104E00008842704730B50B4601460020202201241D
:104E100009E021FA02F59D4205D303FA02F5491B88
:104E200004FA02F52844151EA2F10102F1DC30BD9E
:104E30002DE9F05F0546002092469B4688460646CF
:104E4000814640241BE0284641464746224600F062
:104E50002FF853465A46C01A914110D311461846AE
:104E6000224600F016F82D1A67EB01084F4622463D
:104E70000120002100F00DF817EB00094E41201E23
:104E8000A4F10104DFDC484631462A464346BDE82A
:104E9000F09F202A04DB203A00FA02F1002070473C
:104EA0009140C2F1200320FA03F319439040704768
:104EB000202A04DB203A21FA02F00021704721FA6F
:104EC00002F3D040C2F120029140084319467047D6
:104ED000202A06DBCB17203A41FA02F043EAE073BE
:104EE00006E041FA02F3D040C2F1200291400843AB
:104EF000194670470FB4002300B589B00CA9009182
:104F00000B996FF00042CB601E4B06931E4B07932C
:104F10000423CDE901321D4A089202466B46002067
:104F200000F08EF909B05DF814FB70B586B0064646
:104F30004FF0FF300091CDE90101002015460C46ED
:104F400004903246694604A8FFF7D4FF024604984D
:104F5000211825B108B1084600E0204628600498D1
:104F600000280DD0002A02DD0098884208D0081BD6
:104F70000094CDE901043246694604A8FFF7BAFF60
:104F800006B070BD79540008975400080D51000810
:104F90000029A8BF7047401C490008BF20F001004D
:104FA000704710B4B0FA80FC00FA0CF050EA01042B
:104FB00004BF10BC704749B1CCF1200421FA04F4BD
:104FC00011FA0CF118BF012121430843A3EB0C0196
:104FD000CB1D4FEA00614FEA102042BF002010BCF9
:104FE000704700EBC35010440029A4BF10BC7047A9
:104FF000401C490008BF20F0010010BC704710B5EC
:10500000141E73F1000408DA401C41F100019218EB
:105010005B411A4301D120F0010010BD2DE9F04D94
:1050200092469B4611B1B1FA81F202E0B0FA80F2E9
:1050300020329046FFF72DFF04460F4640EA0A0053
:1050400041EA0B0153465A46084313D0114653EA2E
:10505000010019D0C8F140025046FFF729FF05466C
:105060000E46504659464246FFF713FF084305D007
:10507000012004E020463946BDE8F08D00200543BC
:1050800046EAE0762C4337430A986305E40AA0EB2E
:1050900008000022FD0A44EA47540A3002D50020E5
:1050A0000146E9E7010510196941DDE908450019E4
:1050B0006941BDE8F04DA2E7C1F30A52C1F3130103
:1050C00040F2FF3341F480119A4202DA0020014697
:1050D000704740F233439A42A2F2334202DC52421A
:1050E000FFF7E6BEFFF7D5BE064C074D06E0E068C9
:1050F00040F0010394E8070098471034AC42F6D31F
:10510000FAF7F8FF0064000820640008C0B24FF40A
:10511000F05100F0E9B900002DE9FF4F087883B0A5
:105120009946FF2805D0491C2D2804D000240020D2
:1051300008E000200BE00124F9E700EB800003EB1E
:105140004000491C0B78FF2BF7D104B140420023EB
:105150000293147819461D462D2C01D02B2C04D116
:10516000521C2D2C13D000240294AA461478FF2C34
:105170000FD00A25A3FB057801FB05814FF0000C39
:1051800003FB0C11521CE3194AEB0101EEE7012469
:10519000EAE7814453EA010002D019F5C87F06DA34
:1051A00003980021C0E9001107B0BDE8F08F002589
:1051B000AE4E2F46DFF8B882184600F0A9F9CDE9C7
:1051C0000001B9F1000002DAC9F1000400E0044670
:1051D0000023A74A1AEB030B42EB045A12E0E00744
:1051E00007D02A46334638464146FFF74CFC07466F
:1051F00088462A46334610461946FFF744FC0546C2
:105200000E466410002CEAD1DDE90001B9F1000F6F
:105210005A46534606DAFFF7A8FC3A464346FFF7DC
:10522000A4FC05E0FFF72FFC3A464346FFF72BFCB2
:10523000029A0AB181F00041039AC2E90001B3E782
:105240002DE9FF4F1F468DB0D7E901464FF0FF38DB
:105250002E2045464FF000090B90B9696D1C0E9841
:105260008847396A824688470028F6D1BAF1FF3F5D
:105270000AD024F4D064002E11DDBAF12B0F08D02F
:10528000BAF12D0F0BD102E0404611B08DE744F486
:105290008064B9696D1C0E9888478246761E6946FF
:1052A000600501D52D2000E02B208DF8000001F1D4
:1052B000010B0DF1200809E0B9696D1C0E988847B3
:1052C00082460F9844F40074761E0560002E02DDBD
:1052D000BAF1300FF0D00B998A453ED144F08004EA
:1052E00006E00F99681CA9F1010944F400740860F4
:1052F000B9696D1C761E0E98884782463028F0D01A
:105300002BE00B998A4505D1200603D444F0800494
:10531000761E18E0504600F06FFA08B30DF1130145
:10532000761E44F400748B4508D2AAF130000BF8C5
:10533000010B200607D5A9F1010003E0200602D4E5
:1053400009F101008146A00502D50F99681C08608B
:10535000B9696D1C0E9888478246002ED1DC53E057
:10536000002E51DDBAF1650F02D0BAF1450F4BD1D5
:10537000A00549D5B9696D1C24F44074761E0E98B9
:1053800088478246002E0CDD2B2804D0BAF12D0F61
:1053900007D144F48074B9696D1C0E988847824621
:1053A000761EE00501D52D2100E02B2108F8011B18
:1053B000CDF82C8021E00DF12901761E44F4007413
:1053C00088450CD2AAF1300010F0FF0088F80000E8
:1053D00002D10B99884509D908F1010806E0E005DA
:1053E00001D5244801E042F20F708146B9696D1C75
:1053F0000E98884782460F980560002E04DD5046BF
:1054000000F0FAF90028D6D1F9690E988847FF20F4
:105410008BF8000088F800000020069007904B46AB
:105420006A4608A906A8FFF777FEA00502D46FF028
:1054300001002AE714F0240F0AD0E00714D1DDE9B7
:1054400006123868031D3B600068C0E900120BE0DB
:10545000DDE90601FFF7A6FC0146E00704D1386844
:10546000021D3A600068016028460EE70000144003
:105470000000F03FF1D8FFFF426842B1016811F827
:10548000013B23B1521EC0E90012184670470121AA
:10549000C160881E704742685AB1C368016843B949
:1054A00083688B4205D0491E521CC0E900120020BF
:1054B00070474FF0FF30704770B521F00043034351
:1054C0000CD0C1F30A550024D5EB040564EB0403AA
:1054D000D617AD1AB34102DB0020014670BD20187B
:1054E00041EB025170BD00007F2801D9002208E085
:1054F000064A02EB5002C007127800D1120902F0EE
:105500000F0201209040084070470000C06300086F
:105510000EB540F2334202920022CDE9002213463A
:10552000FFF77CFD03B000BD0FB4084B10B504A914
:1055300002AA039800F068F9044602A9002000F0CE
:10554000FAFC204610BC5DF814FB0000375F000831
:10555000490050EAC12018BF04204A0D18BF40F08E
:10556000010040F2FF72B2EB515F08BF40F0020051
:10557000012808BF052070472DE9F0414F1E00EBC0
:10558000C7010446D1E9000115461E4637F0060260
:105590000DD02A463346FFF776FA7F1E04EBC70389
:1055A000D3E90023FFF7C8F937F00602F1D1022F43
:1055B00025D0042F13D0062F18BFBDE8F0812A464E
:1055C0003346FFF760FAD4E90A23FFF7B5F92A4614
:1055D0003346FFF758FAD4E90823FFF7ADF92A4616
:1055E0003346FFF750FAD4E90623FFF7A5F92A4618
:1055F0003346FFF748FAD4E90423FFF79DF92A461A
:105600003346FFF740FAD4E90223FFF795F92A461B
:105610003346FFF738FAD4E90023BDE8F041FFF73D
:105620008BB90122FFF748BFFFF786B9024A002075
:105630001107FFF741BF000001FDFFFF01480068AF
:10564000704700001001002002E008C8121F08C1C6
:10565000002AFAD170477047002001E001C1121FF3
:10566000002AFBD170470000014908607047000024
:10567000100100202DE9FF5F82B00021DDE9043038
:10568000020DDDF840B0034318D044F61050A2F2EA
:10569000FF3242431514119801281FD0A5EB0B00CF
:1056A000401C5FEA000A4FF000064E4FDFF83891C9
:1056B000B046504615D5CAF1000413E011980124F4
:1056C0004AA3012801D16FEA0B010298119AC0E99F
:1056D0000031C0E9024206B0BDE8F09FCBF1000006
:1056E000DFE704460021404A491842EB0450CDE967
:1056F000001012E0E00707D032463B4640464946DC
:10570000FFF7C1F98046894632463B4610461946A6
:10571000FFF7B9F906460F466410002CEAD1DDE91F
:105720000401DDE90023BAF1000F06DAFFF7ABF957
:1057300042464B46FFF7A7F905E0FFF716FA424647
:105740004B46FFF712FA04460E460022284BFFF79D
:1057500011FB03D84FF0FF30014607E00022254B34
:1057600020463146FFF7E8F8FFF7A6FC102409E0D1
:10577000002C0ADB0A220023FFF75AFB039B30327E
:105780001A55641E50EA0102F2D1641C039AC4F156
:1057900011031444119A012A03D0012208430DD1A8
:1057A0000AE0084304D000204FF0110B119072E77B
:1057B000A3EB0B056D1E0DE05B4504DD4FF0000211
:1057C00005F1010504E003DA4FF00002A5F101053F
:1057D000002AECD002981199C0E90231C0E90045D5
:1057E00079E70000000014400000F03F30000000A6
:1057F0000000F0430000E03F30380A2801D20120C9
:1058000070470020704700002DE9FF4F95B09B4680
:105810008946064600250FE2252877D10024274631
:10582000F84A0121059400E0044316F8013F203BAB
:1058300001FA03F01042F7D130782A2811D06FF026
:105840002F033078A0F13002092A16D8059A44F0C7
:10585000020402EB820203EB42021044761C059024
:10586000EFE759F8042B0592002A03DA504244F47A
:105870000054059044F00204761C30782E2816D18E
:1058800016F8010F44F004042A280DD06FF02F02FF
:105890003078A0F13003092B09D807EB870302EB1E
:1058A0004303C718761CF3E759F8047B761C30785D
:1058B0006C280FD006DC4C2817D068280DD06A2839
:1058C00014D104E0742810D07A280FD10DE044F4EC
:1058D00000140AE044F4801401E044F440147278A7
:1058E000824202D104F58014761C761C307866283A
:1058F0000BD013DC582877D009DC002875D0452858
:10590000F6D04628F4D047281AD19DE118E0632844
:1059100035D0642879D0652812D195E1702873D0EC
:1059200008DC6728F1D069286FD06E280DD06F2869
:1059300006D1B5E073282CD0752875D0782874D09E
:105940005A46179990476D1C75E1C4F3025002281E
:1059500009D003280DD0D9F8001004280DD00D600F
:1059600009F1040967E1D9F80010EA17C1E900520A
:10597000F6E7D9F800100D80F2E70D70F0E719F89E
:10598000041B8DF8001000208DF80100EA4601206C
:1059900003E059F804AB4FF0FF3061074FF000010E
:1059A00002D40DE008F101018846B9420FDA8045C2
:1059B000F8DB1AF808100029F4D108E008F1010119
:1059C00088468142FADB1AF808100029F6D10598BA
:1059D0005B46A0EB080721463846179A00F094FA78
:1059E000284400EB080507E04DE029E10DE01AF836
:1059F000010B5A4617999047B8F10108F7D25B4658
:105A000021463846179A13E142E00A220092C4F375
:105A100002524FF0000A022A08D059F804CB032A98
:105A20004FEAEC710AD00DE029E02AE009F1070104
:105A300021F00702F2E802C1914609E00FFA8CFC5E
:105A40004FEAEC71042A03D14FFA8CFC4FEAEC7157
:105A5000002907DA0A460021DCF1000C61EB0201A3
:105A60002D2202E0220504D52B228DF804200122EC
:105A700003E0E20701D02022F7E7904659E00A212F
:105A800002E010220DE010214FF0000A00910BE01F
:105A900010224FF0000A44F004040827009203E0AB
:105AA00008224FF0000A0092C4F30252022A05D0E5
:105AB00059F804CB0021032A08D009E009F10701B5
:105AC00021F00702F2E802C1914605E01FFA8CFCC2
:105AD000042A01D10CF0FF0C4FF00008220728D552
